:020000040000FA
:04000000C8EF24F031
:1006000000252E326600494E46004E414E00696E6E
:0D06100066006E616E006C660025630000E0
:10061E00000E556E000E546E30C066F031C067F09D
:10062E0032C068F033C069F069BE22EF03F020EFEC
:10063E0003F038EF03F0000E556E010E546E66C0D7
:10064E0001F067C002F068C003F069C004F00EEC60
:10065E0024F001C066F002C067F003C068F004C069
:10066E0069F0000E6D6E000E6C6EECC058F0EDC0B1
:10067E0059F054505510D8A447EF03F049EF03F04A
:10068E0051EF03F00001F0A54FEF03F051EF03F02F
:10069E006BEF03F054505510D8A458EF03F05AEFF7
:1006AE0003F060EF03F0000E3B6E2B0E3A6E64EF1C
:1006BE0003F0000E3B6E2D0E3A6E3AC000F16C4AFE
:1006CE006D2A5806D8A0590666C001F067C002F020
:1006DE0068C003F069C004F04BEC1EF00104021078
:1006EE00D8A47CEF03F07EEF03F0D3EF03F0BF0E40
:1006FE00356EFF0E366E3450376E386A35503726EB
:10070E003650382238500AE11A0E375CD8A092EFD4
:10071E0003F095EF03F0010E96EF03F0000E3C6E22
:10072E003D6A3C503D10D8B49FEF03F0A1EF03F0AB
:10073E00AFEF03F0000E6C24016E010E6D20026E01
:10074E00060E036E060E046E1CEC23F0BBEF03F0D8
:10075E00000E6C24016E010E6D20026E0E0E036EE5
:10076E00060E046E1CEC23F0FD0E5826FF0E5922C9
:10077E002EC016F02FC017F0000E186E010E196E57
:10078E0058C01AF059C01BF0A1EC1FF016C02EF085
:10079E0017C02FF053EF09F066C001F067C002F0EA
:1007AE0068C003F069C004F04BEC1EF0015002105B
:1007BE00D8A4E4EF03F0E6EF03F03BEF04F0BF0E36
:1007CE00356EFF0E366E3450376E386A355037261A
:1007DE003650382238500AE11A0E375CD8A0FAEF9C
:1007EE0003F0FDEF03F0010EFEEF03F0000E3E6E80
:1007FE003F6A3E503F10D8B407EF04F009EF04F003
:10080E0017EF04F0000E6C24016E010E6D20026EC7
:10081E000A0E036E060E046E1CEC23F023EF04F09A
:10082E00000E6C24016E010E6D20026E120E036E10
:10083E00060E046E1CEC23F0FD0E5826FF0E5922F8
:10084E002EC016F02FC017F0000E186E010E196E86
:10085E0058C01AF059C01BF0A1EC1FF016C02EF0B4
:10086E0017C02FF053EF09F0000E6E6E000E6F6E74
:10087E00800E706E3F0E716E000E6B6E000E6A6E05
:10088E0066C001F067C002F068C003F069C004F0F2
:10089E00000E056E000E066E000E076E000E086E40
:1008AE0017EC21F0D8B05EEF04F060EF04F0E1EF4A
:1008BE0004F07EEF04F06EC001F06FC002F070C065
:1008CE0003F071C004F0000E056E000E066E200ED1
:1008DE00076E410E086E27EC15F001C06EF002C0D7
:1008EE006FF003C070F004C071F06A4A6B2A66C0E4
:1008FE001AF067C01BF068C01CF069C01DF0000E36
:10090E00056E000E066E200E076E410E086E6EC04E
:10091E0001F06FC002F070C003F071C004F027EC5C
:10092E0015F001C01EF002C01FF003C020F004C07D
:10093E0021F0C9EC1DF0D8B0A7EF04F0A9EF04F038
:10094E0062EF04F0C8EF04F06EC001F06FC002F069
:10095E0070C003F071C004F0000E056E000E066E3E
:10096E00200E076E410E086E3CEC17F001C06EF0C3
:10097E0002C06FF003C070F004C071F06A06D8A018
:10098E006B0666C01AF067C01BF068C01CF069C029
:10099E001DF06EC01EF06FC01FF070C020F071C051
:1009AE0021F0C9EC1DF0D8A0DFEF04F0E1EF04F068
:1009BE00ABEF04F034C007F0086ABDEC22F007502C
:1009CE005B6E5BC05AF0670E5B18D8A4F1EF04F0B3
:1009DE00F3EF04F01AEF05F00001EE51EF11D8A479
:1009EE00FBEF04F0FDEF04F001EF05F0000EEF6FEA
:1009FE00010EEE6FEFBF0EEF05F0EF5106E1EE05C3
:100A0E00D8B00CEF05F00EEF05F014EF05F0000E68
:100A1E00576E060E566E24EF05F0EEC056F0EFC080
:100A2E0057F024EF05F00001EFBF20EF05F022EFA5
:100A3E0005F00EEF05F014EF05F0670E5B18D8A465
:100A4E002BEF05F02DEF05F05CEF05F06BAE3BEFF5
:100A5E0005F0FC0E6A5CFF0E6B58D8A039EF05F05E
:100A6E003BEF05F05AEF05F0FF0E356EFF0E366EBA
:100A7E0056C037F057C038F035503726365038222A
:100A8E006A50375C3850800A396E6B50800A39587C
:100A9E00D8A054EF05F056EF05F05AEF05F0660EAC
:100AAE005A6E5CEF05F0650E5A6E56C04CF057C08C
:100ABE004DF0670E5B18D8A467EF05F069EF05F0EF
:100ACE0079EF05F0660E5A18D8A470EF05F072EFA4
:100ADE0005F07BEF05F06BBE79EF05F077EF05F0D3
:100AEE007BEF05F04C4A4D2A660E5A18D8A482EFB9
:100AFE0005F084EF05F0A4EF05F06BBE8BEF05F06B
:100B0E0089EF05F097EF05F0000E6E6E000E6F6E1A
:100B1E00800E706E3F0E716E000E6B6E000E6A6E62
:100B2E00670E5B18D8B49EEF05F0A0EF05F0A4EFAA
:100B3E0005F06A504C266B504D22000E656E000E6D
:100B4E00646E66C05CF067C05DF068C05EF069C040
:100B5E005FF06EC04EF06FC04FF070C050F071C0BD
:100B6E0051F034EF06F05CC001F05DC002F05EC0E3
:100B7E0003F05FC004F06EC005F06FC006F070C0E9
:100B8E0007F071C008F03CEC17F001C01AF002C07B
:100B9E001BF003C01CF004C01DF09BEC1AF01AC031
:100BAE0060F01BC061F01CC062F01DC063F060C03D
:100BBE0001F061C002F062C003F063C004F046ECC5
:100BCE001DF001C052F002C053F05CC01AF05DC0BF
:100BDE001BF05EC01CF05FC01DF06EC005F06FC054
:100BEE0006F070C007F071C008F060C001F061C07F
:100BFE0002F062C003F063C004F027EC15F001C0F0
:100C0E001EF002C01FF003C020F004C021F073ECF0
:100C1E0023F01AC05CF01BC05DF01CC05EF01DC05E
:100C2E005FF06EC001F06FC002F070C003F071C0D3
:100C3E0004F0000E056E000E066E200E076E410EBD
:100C4E00086E3CEC17F001C06EF002C06FF003C0EE
:100C5E0070F004C071F0644A652A4C50645C6550B3
:100C6E00800A356E4D50800A3558D8A041EF06F0F7
:100C7E0043EF06F0BAEF05F06EC001F06FC002F060
:100C8E0070C003F071C004F0000E056E000E066E0B
:100C9E00A00E076E400E086E27EC15F001C060F036
:100CAE0002C061F003C062F004C063F05CC01AF0D1
:100CBE005DC01BF05EC01CF05FC01DF060C01EF07A
:100CCE0061C01FF062C020F063C021F0C9EC1DF0BE
:100CDE00D8B074EF06F076EF06F080EF06F0000E57
:100CEE00606E000E616E000E626E000E636EA8EFF7
:100CFE0006F05CC001F05DC002F05EC003F05FC0A4
:100D0E0004F060C005F061C006F062C007F063C079
:100D1E0008F017EC21F0D8A097EF06F099EF06F047
:100D2E00A8EF06F052B09EEF06F0A0EF06F0A8EF87
:100D3E0006F0000E606E000E616E000E626E000E0A
:100D4E00636E66C001F067C002F068C003F069C050
:100D5E0004F060C005F061C006F062C007F063C029
:100D6E0008F09FEC10F001C05CF002C05DF003C013
:100D7E005EF004C05FF05CC01AF05DC01BF05EC098
:100D8E001CF05FC01DF0000E056E000E066E200EEC
:100D9E00076E410E086E4EC001F04FC002F050C0FB
:100DAE0003F051C004F027EC15F001C01EF002C094
:100DBE001FF003C020F004C021F0C9EC1DF0D8A034
:100DCE00EBEF06F0EDEF06F014EF07F06A4A6B2A30
:100DDE004EC001F04FC002F050C003F051C004F0FD
:100DEE00000E056E000E066E200E076E410E086E8A
:100DFE0027EC15F001C04EF002C04FF003C050F0CA
:100E0E0004C051F0660E5A18D8A410EF07F012EF76
:100E1E0007F014EF07F04C4A4D2A4EC06EF04FC04B
:100E2E006FF050C070F051C071F0650E5A18D8B402
:100E3E0023EF07F025EF07F02BEF07F06AC04AF01B
:100E4E006BC04BF02FEF07F0000E4B6E000E4A6E8C
:100E5E00000E496E000E486E000E476E000E466E76
:100E6E00000E656E000E646E29EF08F05CC001F096
:100E7E005DC002F05EC003F05FC004F06EC005F00E
:100E8E006FC006F070C007F071C008F03CEC17F0B0
:100E9E0001C01AF002C01BF003C01CF004C01DF00C
:100EAE009BEC1AF01AC060F01BC061F01CC062F01F
:100EBE001DC063F060C001F061C002F062C003F0BB
:100ECE0063C004F046EC1DF001C052F002C053F0B6
:100EDE000001F0B975EF07F077EF07F094EF07F028
:100EEE0052505310D8A47EEF07F080EF07F094EF26
:100EFE0007F0670E5B18D8A487EF07F089EF07F0AD
:100F0E0094EF07F04BBE90EF07F08EEF07F094EFE3
:100F1E0007F0464A472ADEEF07F048504910D8A49A
:100F2E009BEF07F09DEF07F0C7EF07F04BBEA4EF66
:100F3E0007F0A2EF07F0C7EF07F0000E6C24D96E92
:100F4E00010E6D20DA6E2E0EDF6E6C4A6D2A58067B
:100F5E00D8A05906000E496E010E486EC7EF07F075
:100F6E00000E6C24D96E010E6D20DA6E300EDF6E1F
:100F7E006C4A6D2A5806D8A059064606D8A04706D0
:100F8E0046504710D8A4CEEF07F0D0EF07F0B7EFDA
:100F9E0007F0000E6C24D96E010E6D20DA6E5250E1
:100FAE00300FDF6E6C4A6D2A5806D8A059065CC009
:100FBE001AF05DC01BF05EC01CF05FC01DF06EC06D
:100FCE0005F06FC006F070C007F071C008F060C089
:100FDE0001F061C002F062C003F063C004F027ECC0
:100FEE0015F001C01EF002C01FF003C020F004C0B7
:100FFE0021F073EC23F01AC05CF01BC05DF01CC036
:10100E005EF01DC05FF06EC001F06FC002F070C0E8
:10101E0003F071C004F0000E056E000E066E200E79
:10102E00076E410E086E3CEC17F001C06EF002C068
:10103E006FF003C070F004C071F04A06D8A04B06E2
:10104E00644A652A4C50645C6550800A356E4D507A
:10105E00800A3558D8B036EF08F038EF08F046EF72
:10106E0008F06DBE44EF08F06D5009E14B0E6C5C5C
:10107E00D8A044EF08F046EF08F03DEF07F04850D7
:10108E004910D8A44DEF08F04FEF08F061EF08F0CB
:10109E000001F0A955EF08F057EF08F061EF08F0E6
:1010AE00000E6C24D96E010E6D20DA6E2E0EDF6EE0
:1010BE006C4A6D2A000E6C24D96E010E6D20DA6E0C
:1010CE00000EDF6E650E5A18D8A470EF08F072EF9E
:1010DE0008F041EF09F0000E656E4F0E646E000EC3
:1010EE006424D96E010E6520DA6E000EDF6E000EDE
:1010FE00556E000E546E6BBE89EF08F087EF08F048
:10110E0091EF08F0000E556E010E546E6A6C6B1E58
:10111E00D8B06B2A000E576E020E566EC1EF08F055
:10112E006406D8A06506000E6424D96E010E6520F3
:10113E00DA6E6AC001F06BC002F0000E046E0A0E89
:10114E00036EBFEC20F00150300FDF6E6AC001F06D
:10115E006BC002F0000E046E0A0E036E04EC20F05B
:10116E0001C06AF002C06BF05606D8A057065806AA
:10117E00D8A059066A506B10D8A4C8EF08F0CAEF71
:10118E0008F097EF08F057BED7EF08F0575006E17A
:10119E005604D8B0D5EF08F0D7EF08F097EF08F067
:1011AE006406D8A0650654505510D8A4E1EF08F097
:1011BE00E3EF08F0E9EF08F0000E416E2B0E406EE3
:1011CE00EDEF08F0000E416E2D0E406E000E642401
:1011DE00D96E010E6520DA6E40C0DFFF5806D8A02A
:1011EE0059066406D8A06506BF0E356EFF0E366E24
:1011FE003450376E386A35503726365038223850CC
:10120E000AE11A0E375CD8A00FEF09F012EF09F0C1
:10121E00010E13EF09F0000E446E456A445045105E
:10122E00D8A41CEF09F01EEF09F024EF09F0000E10
:10123E00436E650E426E28EF09F0000E436E450EAA
:10124E00426E000E6424D96E010E6520DA6E42C025
:10125E00DFFF5806D8A05906000E6C24016E010E51
:10126E006D20026E000E6424036E010E6520046E66
:10127E001CEC23F02EC016F02FC017F0000E186EC7
:10128E00010E196E58C01AF059C01BF0A1EC1FF0D8
:10129E0016C02EF017C02FF012000F0EC16E9390D5
:1012AE009392939493969388938A938C938EF19EB4
:1012BE00000E0001DC6F000EDD6F000EDE6F000E03
:1012CE00DF6F000EDB6F000EDA6F58EC22F0BA0EF5
:1012DE000001DA25D96E000EDB21DA6EB6EC24F0B1
:1012EE00DF6E190E0001926F060E936FBA0EDA259D
:1012FE00D96E000EDB21DA6EDF50986F9851946F25
:10130E00956B8FEC24F00001DA4BDB2BFF0E986F00
:10131E00FF0E996FDAC09AF0DBC09BF098519A27B6
:10132E0099519B23BA0E9A25D96E000E9B21DA6E27
:10133E002B0EDE18D8B4A6EF09F0A8EF09F0F9EFDE
:10134E0009F0FF0E986FFF0E996FDAC09AF0DBC0AE
:10135E009BF098519A2799519B23BA0E9A25D96ED4
:10136E00000E9B21DA6E2D0EDE18D8B4C1EF09F0F7
:10137E00C3EF09F0F9EF09F0FF0E986FFF0E996FAA
:10138E00DAC09AF0DBC09BF098519A2799519B23B3
:10139E00BA0E9A25D96E000E9B21DA6E2F0EDE182C
:1013AE00D8B4DCEF09F0DEEF09F0F9EF09F0FF0E2B
:1013BE00986FFF0E996FDAC09AF0DBC09BF09851D0
:1013CE009A2799519B23BA0E9A25D96E000E9B210E
:1013DE00DA6E780EDE18D8A4F7EF09F0F9EF09F0FF
:1013EE0066EF0AF0000EC56F000EC46F0FEF0AF025
:1013FE00BA0EC425D96E000EC521DA6E9D0EC42517
:10140E00E16E000EC521E26EDFCFE7FFC44BC52BA8
:10141E00FF0E986FFF0E996FDAC09AF0DBC09BF04B
:10142E0098519A2799519B239A51C45DC551800AB0
:10143E009C6F9B51800A9C59D8A028EF0AF02AEF86
:10144E000AF0FFEF09F0000E386E0A0E376E000E2E
:10145E00356E000E366E9D0E336E000E346E61ECE0
:10146E0024F033C039F034C03AF035C03BF036C00A
:10147E003CF0010EA4EC1BF039C0D2F03AC0D3F010
:10148E003BC0D4F03CC0D5F0FF0E0001986FFF0EAC
:10149E00996FDAC09AF0DBC09BF098519A27995158
:1014AE009B23BA0E9A25D96E000E9B21DA6EDF5061
:1014BE00B96F000EDB6F000EDA6F6EEF09F0FF0EE4
:1014CE00986FFF0E996FDAC09AF0DBC09BF09851BF
:1014DE009A2799519B23BA0E9A25D96E000E9B21FD
:1014EE00DA6E3D0EDE18D8A47FEF0AF081EF0AF017
:1014FE00B8EF0DF0000EC76F000EC66F97EF0AF033
:10150E00BA0EC625D96E000EC721DA6EA70EC625F5
:10151E00E16E000EC721E26EDFCFE7FFC64BC72B91
:10152E00FF0E986FFF0E996FDAC09AF0DBC09BF03A
:10153E0098519A2799519B239A51C65DC751800A9B
:10154E009C6F9B51800A9C59D8A0B0EF0AF0B2EF65
:10155E000AF087EF0AF0000E386E0A0E376E000E94
:10156E00356E000E366EA70E336E000E346E61ECC5
:10157E0024F033C039F034C03AF035C03BF036C0F9
:10158E003CF0010EA4EC1BF039C0D6F03AC0D7F0F7
:10159E003BC0D8F03CC0D9F09AEF0DF0D2C005F0A8
:1015AE00D3C006F0D4C007F0D5C008F0DCC001F0FF
:1015BE00DDC002F0DEC003F0DFC004F09FEC10F0DF
:1015CE0001C0B1F002C0B2F003C0B3F004C0B4F079
:1015DE00B1C001F0B2C002F0B3C003F0B4C004F069
:1015EE00D6C005F0D7C006F0D8C007F0D9C008F0B5
:1015FE009FEC10F001C0DCF002C0DDF003C0DEF0A5
:10160E0004C0DFF0000E0001C96F000EC86FC9BF25
:10161E001AEF0BF0C95109E10A0EC85DD8A01AEFF6
:10162E000BF01CEF0BF01EEF0BF03AEF0BF0BA0EB7
:10163E00C825D96E000EC921DA6E090EDF6E9D0E19
:10164E00C825D96E000EC921DA6E090EDF6EA70EFF
:10165E00C825D96E000EC921DA6E090EDF6EC84B91
:10166E00C92B0EEF0BF0000EDB6F000EDA6F020EC1
:10167E000001996F450E986FA90EE82EFED7982F90
:10168E00FCD7992FFAD700D0010EEDEC21F0010E08
:10169E000001926F060E936FDCC094F0DDC095F0E2
:1016AE00DEC096F0DFC097F08FEC24F06EEF09F0FD
:1016BE00DCC001F0DDC002F0DEC003F0DFC004F0DC
:1016CE00000E056E000E066E000E076E000E086E02
:1016DE0017EC21F0D8A076EF0BF078EF0BF094EF2B
:1016EE000BF0D2C01AF0D3C01BF0D4C01CF0D5C082
:1016FE001DF0D6C01EF0D7C01FF0D8C020F0D9C044
:10170E0021F073EC23F01AC0DCF01BC0DDF01CC01E
:10171E00DEF01DC0DFF0C8EF0BF0D2C01EF0D3C05C
:10172E001FF0D4C020F0D5C021F0DCC01AF0DDC00F
:10173E001BF0DEC01CF0DFC01DF073EC23F01AC0EE
:10174E00B5F01BC0B6F01CC0B7F01DC0B8F0B5C0E8
:10175E001AF0B6C01BF0B7C01CF0B8C01DF0D6C052
:10176E001EF0D7C01FF0D8C020F0D9C021F073EC06
:10177E0023F01AC0DCF01BC0DDF01CC0DEF01DC073
:10178E00DFF0000E0001CB6F000ECA6FCBBFD9EF9A
:10179E000BF0CB5109E10A0ECA5DD8A0D9EF0BF0C0
:1017AE00DBEF0BF0DDEF0BF0F9EF0BF0BA0ECA2505
:1017BE00D96E000ECB21DA6E090EDF6E9D0ECA2594
:1017CE00D96E000ECB21DA6E090EDF6EA70ECA257A
:1017DE00D96E000ECB21DA6E090EDF6ECA4BCB2B03
:1017EE00CDEF0BF0000EDB6F000EDA6F020E000174
:1017FE00996F450E986FA90EE82EFED7982FFCD73D
:10180E00992FFAD700D0010EEDEC21F0010E000158
:10181E00926F060E936FDCC094F0DDC095F0DEC0C3
:10182E0096F0DFC097F08FEC24F06EEF09F0DCC07D
:10183E0001F0DDC002F0DEC003F0DFC004F0000EE8
:10184E00056E000E066E000E076E000E086E17EC8B
:10185E0021F0D8A035EF0CF037EF0CF053EF0CF071
:10186E00D2C001F0D3C002F0D4C003F0D5C004F052
:10187E00D6C005F0D7C006F0D8C007F0D9C008F022
:10188E0027EC15F001C0DCF002C0DDF003C0DEF085
:10189E0004C0DFF086EF0CF0D2C001F0D3C002F02E
:1018AE00D4C003F0D5C004F0000E056E000E066E17
:1018BE00000E076E000E086E17EC21F0D8A06AEF2E
:1018CE000CF06CEF0CF086EF0CF0DCC001F0DDC01C
:1018DE0002F0DEC003F0DFC004F0D6C005F0D7C0C2
:1018EE0006F0D8C007F0D9C008F027EC15F001C0FB
:1018FE00DCF002C0DDF003C0DEF004C0DFF0000E4D
:10190E000001CD6F000ECC6FCDBF97EF0CF0CD5117
:10191E0009E10A0ECC5DD8A097EF0CF099EF0CF010
:10192E009BEF0CF0B7EF0CF0BA0ECC25D96E000E73
:10193E00CD21DA6E090EDF6E9D0ECC25D96E000E0E
:10194E00CD21DA6E090EDF6EA70ECC25D96E000EF4
:10195E00CD21DA6E090EDF6ECC4BCD2B8BEF0CF05A
:10196E00000EDB6F000EDA6F020E0001996F450E4E
:10197E00986FA90EE82EFED7982FFCD7992FFAD77D
:10198E0000D0010EEDEC21F0010E0001926F060E5B
:10199E00936FDCC094F0DDC095F0DEC096F0DFC032
:1019AE0097F08FEC24F06EEF09F0DCC001F0DDC093
:1019BE0002F0DEC003F0DFC004F0000E056E000E74
:1019CE00066E000E076E000E086E17EC21F0D8A002
:1019DE00F3EF0CF0F5EF0CF011EF0DF0D2C001F0BB
:1019EE00D3C002F0D4C003F0D5C004F0D6C005F0C9
:1019FE00D7C006F0D8C007F0D9C008F03CEC17F0FD
:101A0E0001C0DCF002C0DDF003C0DEF004C0DFF088
:101A1E0044EF0DF0D2C001F0D3C002F0D4C003F0F9
:101A2E00D5C004F0000E056E000E066E000E076E99
:101A3E00000E086E17EC21F0D8A028EF0DF02AEF5B
:101A4E000DF044EF0DF0DCC001F0DDC002F0DEC0A1
:101A5E0003F0DFC004F0D6C005F0D7C006F0D8C042
:101A6E0007F0D9C008F03CEC17F001C0DCF002C062
:101A7E00DDF003C0DEF004C0DFF0000E0001CF6F1A
:101A8E00000ECE6FCFBF55EF0DF0CF5109E10A0E0C
:101A9E00CE5DD8A055EF0DF057EF0DF059EF0DF0CC
:101AAE0075EF0DF0BA0ECE25D96E000ECF21DA6E7F
:101ABE00090EDF6E9D0ECE25D96E000ECF21DA6E89
:101ACE00090EDF6EA70ECE25D96E000ECF21DA6E6F
:101ADE00090EDF6ECE4BCF2B49EF0DF0000EDB6FF4
:101AEE00000EDA6F020E0001996F450E986FA90E67
:101AFE00E82EFED7982FFCD7992FFAD700D0010EDB
:101B0E00EDEC21F0010E0001926F060E936FDCC01A
:101B1E0094F0DDC095F0DEC096F0DFC097F08FEC4C
:101B2E0024F06EEF09F00001B951986F996B99513D
:101B3E00000AD8B4A5EF0DF019EF0EF098512B0A4C
:101B4E00D8B4D5EF0AF0060AD8B45FEF0BF0020A4C
:101B5E00D8B4DCEF0CF0570AD8B41EEF0CF019EF26
:101B6E000EF0FF0E986FFF0E996FDAC09AF0DBC081
:101B7E009BF098519A2799519B23BA0E9A25D96EAC
:101B8E00000E9B21DA6E430EDE18D8A4D1EF0DF0B5
:101B9E00D3EF0DF019EF0EF0000ED16F000ED06FD7
:101BAE00D1BFE3EF0DF0D15109E10A0ED05DD8A0FF
:101BBE00E3EF0DF0E5EF0DF0E7EF0DF003EF0EF0B4
:101BCE00BA0ED025D96E000ED121DA6E090EDF6E57
:101BDE009D0ED025D96E000ED121DA6E090EDF6E64
:101BEE00A70ED025D96E000ED121DA6E090EDF6E4A
:101BFE00D04BD12BD7EF0DF0000EDC6F000EDD6F4A
:101C0E00000EDE6F000EDF6F010EEDEC21F0030E05
:101C1E000001986F970EE82EFED7982FFCD700D0B4
:101C2E006EEF09F06EEF09F000EF00F074C0D9FF0F
:101C3E0075C0DAFFDECFF6FFDDCFF7FF0800F550F7
:101C4E00250AD8A42DEF0EF02FEF0EF083EF10F033
:101C5E0074C0D9FF75C0DAFFDE2A000EDD22000E39
:101C6E000001ED6F000EEC6FECC0F0F0EDC0F1F086
:101C7E00EE69EF6974C0D9FF75C0DAFFDECFF6FFEB
:101C8E00DDCFF7FF0800F5502E0AD8A451EF0EF065
:101C9E0053EF0EF0D1EF0EF0000EEF6F000EEE6F61
:101CAE0074C0D9FF75C0DAFFDE2A000EDD2274C0C3
:101CBE00D9FF75C0DAFFDECFF6FFDDCFF7FF0800E4
:101CCE00F5502A0AD8A46EEF0EF070EF0EF08DEFDD
:101CDE000EF074C0D9FF75C0DAFFDE2A000EDD22C9
:101CEE0076C0D9FF77C0DAFFDFCF78F0020EDE269E
:101CFE00DFCF79F0000EDD2278C0D9FF79C0DAFF90
:101D0E00DECFEEF0DDCFEFF0D1EF0EF074C0D9FFE5
:101D1E0075C0DAFFDECF08F0DDCF09F07EEC1CF0E7
:101D2E0008C0EEF009C0EFF0A4EF0EF074C0D9FFBA
:101D3E0075C0DAFFDE2A000EDD22D00E786EFF0EA1
:101D4E00796E74C0D9FF75C0DAFFDECFF6FFDDCF36
:101D5E00F7FF0800F5507A6E7B6A78507A26795034
:101D6E007B227B500AE10A0E7A5CD8A0C1EF0EF0FE
:101D7E00C4EF0EF0010EC5EF0EF0000E0001806FE5
:101D8E00816B80518111D8A4CFEF0EF0D1EF0EF000
:101D9E009DEF0EF074C0D9FF75C0DAFFDECFF6FFEF
:101DAE00DDCFF7FF0800F550076E086ABDEC22F094
:101DBE0007500001886F8851D8B4E8EF0EF0EAEFB3
:101DCE000EF024EF0FF074C0D9FF75C0DAFFDECF2E
:101DDE0078F0DDCF79F0010E7826000E792278C0EA
:101DEE00F6FF79C0F7FF0800F550076E086ABDECE4
:101DFE0022F007500001896F8951D8B409EF0FF016
:101E0E000BEF0FF024EF0FF074C0D9FF75C0DAFF9F
:101E1E00DECF78F0DDCF79F0020E7826000E792233
:101E2E0078C0F6FF79C0F7FF0800F550076E086A14
:101E3E00BDEC22F0075000018A6F74C0D9FF75C047
:101E4E00DAFFDECFF6FFDDCFF7FF0800F550630AAD
:101E5E00D8A434EF0FF036EF0FF05DEF0FF074C033
:101E6E00D9FF75C0DAFFDE2A000EDD2276C0D9FF5B
:101E7E0077C0DAFFDFCF78F0020EDE26DFCF79F003
:101E8E00000EDD2278C0D9FF79C0DAFFDF508B6FEC
:101E9E0072C00FF073C010F08BC011F0CAEC1EF0C0
:101EAE000FC072F010C073F09EEF10F0660E88191E
:101EBE00D8A464EF0FF066EF0FF0A6EF0FF074C02A
:101ECE00D9FF75C0DAFFDECFF6FFDDCFF7FF0800D2
:101EDE00F5CF8BF074C0D9FF75C0DAFFDE2A000E85
:101EEE00DD2276C0D9FF77C0DAFFDFCF78F0040E9F
:101EFE00DE26DFCF79F0000EDD2278C0D9FF79C063
:101F0E00DAFFDECF84F0DECF85F0DECF86F0DECFD7
:101F1E0087F072C02EF073C02FF084C030F085C0F1
:101F2E0031F086C032F087C033F08BC034F00FEC46
:101F3E0003F02EC072F02FC073F09EEF10F0880EDB
:101F4E00016E000E026E160E036E060E046E000E6D
:101F5E00066E020E056E36EC1FF001500210D8A46C
:101F6E00BBEF0FF0BDEF0FF04DEF10F074C0D9FFC7
:101F7E0075C0DAFFDECF78F0DDCF79F0010E78266E
:101F8E00000E792278C0F6FF79C0F7FF0800F5CF72
:101F9E008BF0BF0E786EFF0E796E74C0D9FF75C0D0
:101FAE00DAFFDECFF6FFDDCFF7FF0800F5507A6ED1
:101FBE007B6A78507A2679507B227B500AE11A0E82
:101FCE007A5CD8A0EDEF0FF0F0EF0FF0010EF1EF0D
:101FDE000FF0000E0001826F836B82518311D8B413
:101FEE00FBEF0FF0FDEF0FF017EF10F076C0D9FFFB
:101FFE0077C0DAFFDFCF78F0040EDE26DFCF79F080
:10200E00000EDD2278C0D9FF79C0DAFFDECF84F072
:10201E00DECF85F0DECF86F0DECF87F02FEF10F02B
:10202E0076C0D9FF77C0DAFFDFCF78F0040EDE2658
:10203E00DFCF79F0000EDD2278C0D9FF79C0DAFF4C
:10204E00DECF84F0DECF85F0DECF86F0DECF87F0F8
:10205E00020E74C0D9FF75C0DAFFDE26000EDD2237
:10206E0072C02EF073C02FF084C030F085C031F0F6
:10207E0086C032F087C033F08BC034F00FEC03F023
:10208E002EC072F02FC073F09EEF10F074C0D9FF07
:10209E0075C0DAFFDECFF6FFDDCFF7FF0800F55093
:1020AE00250AD8A45DEF10F05FEF10F076EF10F078
:1020BE0074C0D9FF75C0DAFFDE2A000EDD22000ED5
:1020CE00076E250E066E72C008F073C009F06CEC38
:1020DE0021F0000E736E010E726E9EEF10F074C042
:1020EE00D9FF75C0DAFFDE2A000EDD22000E736EF8
:1020FE00000E726E9EEF10F074C0D9FF75C0DAFF3D
:10210E00DECFF6FFDDCFF7FF0800F550066E076A4B
:10211E0072C008F073C009F06CEC21F074C0D9FFE6
:10212E0075C0DAFFDE2A000EDD2270EF10F012000D
:10213E000450800B0D6E045004240F6E03AEAAEFF4
:10214E0010F0ACEF10F0ADEF10F00F800F50D8B4D0
:10215E00B3EF10F0B5EF10F0CAEF10F00F28D8A4BF
:10216E00BBEF10F0BDEF10F0C5EF10F0000E016EDA
:10217E00000E026E000E036E000E046E038E000E35
:10218E00046ED2EF10F0000E016E000E026E000E05
:10219E00036E000E046E0850800B0E6E0D500E185E
:1021AE00D8B4DCEF10F0DEEF10F0DFEF10F00D8C96
:1021BE00085008240E6E07AEE7EF10F0E9EF10F0AE
:1021CE00EAEF10F00E800E50D8B4F0EF10F0F2EFF0
:1021DE0010F007EF11F00E28D8A4F8EF10F0FAEF78
:1021EE0010F002EF11F0000E056E000E066E000EDE
:1021FE00076E000E086E078E000E086E0FEF11F0C0
:10220E00000E056E000E066E000E076E000E086EB6
:10221E000F500E5CD8B016EF11F018EF11F03FEF23
:10222E0011F00DAC1DEF11F01FEF11F021EF11F0B9
:10223E00800E0D1A0FC010F00EC00FF010C00EF071
:10224E0001C010F005C001F010C005F002C010F082
:10225E0006C002F010C006F003C010F007C003F075
:10226E0010C007F004C010F008C004F010C008F051
:10227E00000E106E0F500EC009F00A6A095E000EB5
:10228E000A5A0ABE54EF11F00A5009E11A0E095CFF
:10229E00D8A054EF11F056EF11F08DEF11F0015060
:1022AE00021003100410D8A45FEF11F062EF11F0CA
:1022BE00010E63EF11F0000E106E000E016E000E97
:1022CE00026E000E036E000E046E0EC00FF096EF3F
:1022DE0011F010A075EF11F077EF11F07DEF11F006
:1022EE00D89010300109106E7FEF11F0D890103297
:1022FE0001A084EF11F086EF11F087EF11F0108E30
:10230E00043404320332023201320F2A0E500F5CB3
:10231E00D8A094EF11F096EF11F070EF11F00DBC04
:10232E009BEF11F09DEF11F0DDEF11F00F50D8A4DF
:10233E00A3EF11F0A5EF11F0AFEF11F0000E016E4B
:10234E00000E026E000E036E000E046EFEEF12F013
:10235E00055001260650022207500322085004227F
:10236E0004A0BCEF11F0BEEF11F06AEF12F010A056
:10237E00C3EF11F0C5EF11F0CBEF11F0D890103084
:10238E000109106ECDEF11F0D890103201A0D2EFEE
:10239E0011F0D4EF11F0D5EF11F0108E0434043299
:1023AE000332023201320F2A6AEF12F00550015C3D
:1023BE0006500258075003580450800A096E085000
:1023CE00800A0958D8B0EEEF11F0F0EF11F01BEFC4
:1023DE0012F00150055C096E025006580A6E035049
:1023EE0007580B6E045008580C6EFF0E0924016E30
:1023FE00FF0E0A20026EFF0E0B20036EFF0E0C2046
:10240E00046E800E0D1A106C1050D8A411EF12F03D
:10241E0013EF12F023EF12F0010E0126000E02222E
:10242E000322042223EF12F00550015E0650025AD9
:10243E000750035A0850045A01500210031004109A
:10244E00D8A42CEF12F02EEF12F063EF12F0105012
:10245E00D8A434EF12F036EF12F063EF12F0000E44
:10246E00016E000E026E000E036E000E046EFEEF85
:10247E0012F0D890013602360336043610AE4AEF0B
:10248E0012F04CEF12F04DEF12F0018010A052EF4F
:10249E0012F054EF12F058EF12F0D88010365AEFB7
:1024AE0012F0D89010360F50D8B460EF12F062EFE1
:1024BE0012F063EF12F00F0603AE68EF12F06AEF40
:1024CE0012F040EF12F0000E0E6E10AE71EF12F021
:1024DE0073EF12F08BEF12F010C009F07F0E091699
:1024EE00D8B47CEF12F07EEF12F082EF12F0010EF4
:1024FE000E6E8BEF12F001A087EF12F089EF12F043
:10250E008BEF12F07EEF12F00E50D8B491EF12F066
:10251E0093EF12F0BEEF12F0010E0126000E022212
:10252E000322042204A09EEF12F0A0EF12F0BEEFE1
:10253E0012F001C009F002C00AF003C00BF004C093
:10254E000CF00C340C320B320A32093209C001F095
:10255E000AC002F00BC003F00CC004F00F28D8B470
:10256E00BBEF12F0BDEF12F0BEEF12F00F2A0F28E4
:10257E00D8B4C4EF12F0C6EF12F0CEEF12F00F5037
:10258E00D8A4CCEF12F0CEEF12F0E0EF12F0000E66
:10259E00016E000E026E000E036E000E046E0F50E2
:1025AE00D8A4DCEF12F0DEEF12F0E0EF12F0000E26
:1025BE000D6E0FA0E5EF12F0E7EF12F0EAEF12F05A
:1025CE00038EEBEF12F0039ED8900F30046E0DAE1B
:1025DE00F3EF12F0F5EF12F0F6EF12F0048E01C0E9
:1025EE0001F002C002F003C003F004C004F01200B8
:1025FE00000E2C6E000E2D6E000E2E6E000E2F6E27
:10260E000FC030F010C031F030503110D8B412EF8E
:10261E0013F014EF13F001EF15F030C0D9FF31C0F5
:10262E00DAFFDF50D8A41EEF13F020EF13F022EFE5
:10263E0013F001EF15F030C0D9FF31C0DAFFDF50D3
:10264E00326E32EF13F0304A312A30C0D9FF31C02A
:10265E00DAFFDF50326E010E246E200E3218D8B41F
:10266E003BEF13F03DEF13F055EF13F0F70E166E30
:10267E00FF0E176E3250186E196A16501826175024
:10268E001922195009E1050E185CD8A051EF13F06C
:10269E0053EF13F055EF13F0000E246E24C01EF00E
:1026AE001F6A1E501F10D8A45FEF13F061EF13F0D6
:1026BE002AEF13F0000E2A6E000E256E000E2B6E02
:1026CE002D0E3218D8A46EEF13F070EF13F07CEFCE
:1026DE0013F0010E2A6E304A312A30C0D9FF31C0B4
:1026EE00DAFFDF50326E87EF13F02B0E3218D8A4BC
:1026FE0083EF13F085EF13F087EF13F072EF13F003
:10270E00300E3218D8A48EEF13F090EF13F0DAEFEC
:10271E0013F0304A312A30C0D9FF31C0DAFFDF5012
:10272E00326E13501410D8B49FEF13F0A1EF13F0C4
:10273E00ABEF13F0100E13181410D8A4A9EF13F06A
:10274E00ABEF13F0CBEF13F0780E3218D8B4B2EF24
:10275E0013F0B4EF13F0BDEF13F0580E3218D8A4E7
:10276E00BBEF13F0BDEF13F0CBEF13F0000E146EB2
:10277E00100E136E304A312A30C0D9FF31C0DAFF45
:10278E00DF50326EDAEF13F0010E256E1350141077
:10279E00D8A4D4EF13F0D6EF13F0DAEF13F0000E47
:1027AE00146E080E136E13501410D8A4E1EF13F02C
:1027BE00E3EF13F0E7EF13F0000E146E0A0E136E34
:1027CE001550D8B4EDEF13F0EFEF13F00BEF14F04C
:1027DE002A50D8A4F5EF13F0F7EF13F001EF14F031
:1027EE00FF0E266EFF0E276EFF0E286E7F0E296ED1
:1027FE000FEF14F0000E266E000E276E000E286EE0
:10280E00800E296E0FEF14F0266827682868296855
:10281E002CC01AF02DC01BF02EC01CF02FC01DF0C6
:10282E009F0E166EFF0E176E3250186E196A200E1E
:10283E001812000E19121650182617501922195078
:10284E000AE11A0E185CD8A02FEF14F032EF14F034
:10285E00010E33EF14F0000E206E216A205021106D
:10286E00D8B43CEF14F03EEF14F048EF14F032C041
:10287E0007F0086AEDEC22F00750C90F326E6DEFCB
:10288E0014F0D00E166EFF0E176E3250186E196AB7
:10289E00165018261750192219500AE10A0E185C04
:1028AE00D8A05CEF14F05FEF14F0010E60EF14F09F
:1028BE00000E226E236A22502310D8B469EF14F052
:1028CE006BEF14F0E9EF14F0300E325E3250166EEC
:1028DE00176A1350165C1750800A186E1450800A2F
:1028EE001858D8A07DEF14F07FEF14F081EF14F09C
:1028FE00E9EF14F02B50D8A487EF14F089EF14F001
:10290E00DDEF14F013C001F014C002F0000E02BE91
:10291E00FF0E036E046E2CC005F02DC006F02EC007
:10292E0007F02FC008F023EC22F0325001242C6E59
:10293E00000E02202D6E000E03202E6E000E0420BF
:10294E002F6E1A502C5C1B502D581C502E581D509B
:10295E002F58D8A0B5EF14F0B7EF14F0CEEF14F057
:10296E001550D8B4BDEF14F0BFEF14F0DDEF14F036
:10297E002C50265C2D5027582E5028582F50295851
:10298E00D8B0CCEF14F0CEEF14F0DDEF14F026C07B
:10299E002CF027C02DF028C02EF029C02FF0000EED
:1029AE000001E96F220EE86F010E2B6E304A312ABC
:1029BE0030C0D9FF31C0DAFFDF50326E010E256E06
:1029CE000FEF14F02B50D8A4EFEF14F0F1EF14F03A
:1029DE0001EF15F02A50D8B4F7EF14F0F9EF14F018
:1029EE0001EF15F02F1E2E1E2D1E2C6C000E2D220B
:1029FE002E222F2211501210D8B408EF15F00AEF24
:102A0E0015F01EEF15F02550D8A410EF15F012EFAB
:102A1E0015F016EF15F00FC030F010C031F011C0E8
:102A2E00D9FF12C0DAFF30C0DEFF31C0DDFF2CC08F
:102A3E000FF02DC010F02EC011F02FC012F01200AA
:102A4E000450800B0D6E04500424136E03AE32EF4F
:102A5E0015F034EF15F035EF15F013801350D8B490
:102A6E003BEF15F03DEF15F050EF15F01328D8A4FD
:102A7E0043EF15F045EF15F04DEF15F0000E016E1A
:102A8E00000E026E000E036E000E046E038E58EFE3
:102A9E0015F0000E016E000E026E000E036E000E9B
:102AAE00046E0850800B0D1A08500824126E07AEE3
:102ABE0063EF15F065EF15F066EF15F0128012500A
:102ACE00D8B46CEF15F06EEF15F081EF15F01228FB
:102ADE00D8A474EF15F076EF15F07EEF15F0000E1A
:102AEE00056E000E066E000E076E000E086E078E47
:102AFE0089EF15F0000E056E000E066E000E076EC5
:102B0E00000E086E1250D8B48FEF15F091EF15F03D
:102B1E0099EF15F01350D8A497EF15F099EF15F023
:102B2E00A3EF15F0000E016E000E026E000E036E86
:102B3E00000E046E3BEF17F007500102F3CF18F0B2
:102B4E00F4CF19F018500E6E0F6A106A116A1950F0
:102B5E00146E156A166A176A06500202F3CF18F041
:102B6E00F4CF19F018500E26000E0F22102211224B
:102B7E0019501426000E1522162217220550030294
:102B8E00F3CF18F0F4CF19F018500E26000E0F22C6
:102B9E001022112219501426000E15221622172269
:102BAE0010C011F00FC010F00EC00FF00E6A0550DD
:102BBE000202F3CF18F0F4CF19F018500E26195068
:102BCE000F22000E1022000E112206500102F3CF2A
:102BDE0018F0F4CF19F018500E2619500F22000ECF
:102BEE001022000E112210C011F00FC010F00EC0F6
:102BFE000FF00E6A05500102F3CF18F0F4CF19F062
:102C0E0018500E2619500F22000E1022000E1122FF
:102C1E0007500202F3CF18F0F4CF19F01850142613
:102C2E0019501522000E1622000E1722065003020E
:102C3E00F3CF18F0F4CF19F01850142619501522AE
:102C4E00000E1622000E172207500302F3CF18F0C3
:102C5E00F4CF19F01850096E19500A6E0B6A0C6AEF
:102C6E000BC00CF00AC00BF009C00AF0096A09503B
:102C7E0014260A5015220B5016220C5017220EC085
:102C8E0009F00FC00AF010C00BF011C00CF0190EB5
:102C9E0056EF16F0D8900C320B320A320932E82E6B
:102CAE0051EF16F0095014260A5015220B50162219
:102CBE000C50172210C011F00FC010F00EC00FF004
:102CCE000E6A125013C009F00A6A0926000E0A2273
:102CDE00820E0924186EFF0E0A20196E8CEF16F064
:102CEE00D890143615361636173611AE81EF16F00B
:102CFE0083EF16F084EF16F01480D8900E360F3650
:102D0E00103611361806D8A0190616AE91EF16F029
:102D1E0093EF16F077EF16F0000E126E11AE9AEFDB
:102D2E0016F09CEF16F0C0EF16F0FF0E0E14096EA3
:102D3E00FF0E0F140A6EFF0E10140B6E7F0E111481
:102D4E000C6E09500A100B100C10D8B4B1EF16F01F
:102D5E00B3EF16F0B7EF16F0010E126EC0EF16F0CD
:102D6E0014A0BCEF16F0BEEF16F0C0EF16F0B3EFE6
:102D7E0016F01250D8B4C6EF16F0C8EF16F0ECEFFE
:102D8E0016F0010E1426000E15221622172217A079
:102D9E00D3EF16F0D5EF16F0ECEF16F014C009F0E5
:102DAE0015C00AF016C00BF017C00CF00C340C3224
:102DBE000B320A32093209C014F00AC015F00BC0EA
:102DCE0016F00CC017F0184A192A19BEF7EF16F0B4
:102DDE00195008E11828D8A0F7EF16F0F9EF16F001
:102DEE0003EF17F0000E146E000E156E800E166EA9
:102DFE007F0E176E31EF17F019BE10EF17F0195046
:102E0E0006E11804D8B00EEF17F010EF17F01CEF14
:102E1E0017F0000E146E000E156E000E166E000EDC
:102E2E00176E000E0D6E31EF17F018C013F0FF0E77
:102E3E001416FF0E15167F0E1616000E171613A07B
:102E4E002BEF17F02DEF17F02EEF17F0168ED89000
:102E5E001330176E0D50171214C001F015C002F08A
:102E6E0016C003F017C004F012000450800B116E50
:102E7E0004500424186E03AE47EF17F049EF17F015
:102E8E004AEF17F018801850D8B450EF17F052EFE1
:102E9E0017F067EF17F01828D8A458EF17F05AEF6D
:102EAE0017F062EF17F0000E016E000E026E000EAC
:102EBE00036E000E046E038E000E046E6FEF17F09D
:102ECE00000E016E000E026E000E036E000E046EFA
:102EDE000850800B111A08500824196E07AE7AEFAD
:102EEE0017F07CEF17F07DEF17F019801950D8B45A
:102EFE0083EF17F085EF17F09AEF17F01928D8A483
:102F0E008BEF17F08DEF17F095EF17F0000E056EA3
:102F1E00000E066E000E076E000E086E078E000E77
:102F2E00086EA2EF17F0000E056E000E066E000E74
:102F3E00076E000E086E0550061007100810D8A474
:102F4E00ABEF17F0ADEF17F0C5EF17F0000E016EF7
:102F5E00000E026E000E036E000E046E800E031243
:102F6E007F0E04121150041201C001F002C002F0D3
:102F7E0003C003F004C004F008EF19F01850D8A4F1
:102F8E00CBEF17F0CDEF17F0D7EF17F0000E016E65
:102F9E00000E026E000E036E000E046E08EF19F0A6
:102FAE00195018C009F00A6A095E000E0A5A7F0EFF
:102FBE000924126E000E0A20136E01C00DF002C01D
:102FCE000EF003C00FF004C010F0000E016E000EE4
:102FDE00026E000E036E000E046E000E146E000ED6
:102FEE00156E000E166E000E176E000E196E38EF6F
:102FFE0018F01950D8B406EF18F008EF18F01FEFBC
:10300E0018F0D8900D360E360F361036D890013691
:10301E0002360336043617AE17EF18F019EF18F014
:10302E001AEF18F00180D89014361536163617366A
:10303E0005500D5C06500E5807500F58085010588A
:10304E00D8A02CEF18F02EEF18F037EF18F0178CE1
:10305E0005500D5E06500E5A07500F5A0850105A62
:10306E00192A190E19643EEF18F040EF18F000EF10
:10307E0018F00D500E100F101010D8B449EF18F0B4
:10308E004BEF18F063EF18F0148063EF18F0D89040
:10309E00013602360336043617AE58EF18F05AEFE3
:1030AE0018F05BEF18F00180D890143615361636EE
:1030BE0017361206D8A0130603AE68EF18F06AEFA3
:1030CE0018F04EEF18F0000E196E17AE71EF18F0E3
:1030DE0073EF18F097EF18F0FF0E1414096EFF0E31
:1030EE0015140A6EFF0E16140B6E7F0E17140C6E4F
:1030FE0009500A100B100C10D8B488EF18F08AEF94
:10310E0018F08EEF18F0010E196E97EF18F001A05F
:10311E0093EF18F095EF18F097EF18F08AEF18F07C
:10312E001950D8B49DEF18F09FEF18F0C3EF18F0B8
:10313E00010E0126000E02220322042204A0AAEF91
:10314E0018F0ACEF18F0C3EF18F001C009F002C090
:10315E000AF003C00BF004C00CF00C340C320B322E
:10316E000A32093209C001F00AC002F00BC003F0A6
:10317E000CC004F0124A132A13BECEEF18F01350EF
:10318E0008E11228D8A0CEEF18F0D0EF18F0DBEF40
:10319E0018F0000E136E1268000E016E000E026E15
:1031AE00000E036E000E046E13BEE8EF18F01350FF
:1031BE0006E11204D8B0E6EF18F0E8EF18F0F6EFDB
:1031CE0018F0000E136E000E126E000E016E000E41
:1031DE00026E000E036E000E046E000E116E12C013
:1031EE0018F018A0FDEF18F0FFEF18F002EF19F02D
:1031FE00038E03EF19F0039ED8901830046EB9EFCA
:10320E0017F01200819081828184818681B812EF3D
:10321E0019F014EF19F025EF19F0820E016EDE0E83
:10322E00E82EFED7012EFCD781A820EF19F022EF51
:10323E0019F01BEF19F0370E9AEF1AF081BA2AEF38
:10324E0019F02CEF19F03DEF19F0820E016EDE0E23
:10325E00E82EFED7012EFCD781AA38EF19F03AEFEF
:10326E0019F033EF19F0380E9AEF1AF081BC42EFD5
:10327E0019F044EF19F055EF19F0820E016EDE0EC3
:10328E00E82EFED7012EFCD781AC50EF19F052EF8D
:10329E0019F04BEF19F0390E9AEF1AF081BE5AEF72
:1032AE0019F05CEF19F06DEF19F0820E016EDE0E63
:1032BE00E82EFED7012EFCD781AE68EF19F06AEF2B
:1032CE0019F063EF19F02F0E9AEF1AF081808192A8
:1032DE008184818681B876EF19F078EF19F089EF45
:1032EE0019F0820E016EDE0EE82EFED7012EFCD7EF
:1032FE0081A884EF19F086EF19F07FEF19F0340EE4
:10330E009AEF1AF081BA8EEF19F090EF19F0A1EF43
:10331E0019F0820E016EDE0EE82EFED7012EFCD7BE
:10332E0081AA9CEF19F09EEF19F097EF19F0350E68
:10333E009AEF1AF081BCA6EF19F0A8EF19F0B9EFC9
:10334E0019F0820E016EDE0EE82EFED7012EFCD78E
:10335E0081ACB4EF19F0B6EF19F0AFEF19F0360EED
:10336E009AEF1AF081BEBEEF19F0C0EF19F0D1EF4F
:10337E0019F0820E016EDE0EE82EFED7012EFCD75E
:10338E0081AECCEF19F0CEEF19F0C7EF19F0780E31
:10339E009AEF1AF0818081828194818681B8DAEF6A
:1033AE0019F0DCEF19F0EDEF19F0820E016EDE0E62
:1033BE00E82EFED7012EFCD781A8E8EF19F0EAEF30
:1033CE0019F0E3EF19F0310E9AEF1AF081BAF2EF1D
:1033DE0019F0F4EF19F005EF1AF0820E016EDE0E01
:1033EE00E82EFED7012EFCD781AA00EF1AF002EFCD
:1033FE001AF0FBEF19F0320E9AEF1AF081BC0AEFB9
:10340E001AF00CEF1AF01DEF1AF0820E016EDE0E9E
:10341E00E82EFED7012EFCD781AC18EF1AF01AEF6A
:10342E001AF013EF1AF0330E9AEF1AF081BE22EF54
:10343E001AF024EF1AF035EF1AF0820E016EDE0E3E
:10344E00E82EFED7012EFCD781AE30EF1AF032EF08
:10345E001AF02BEF1AF02D0E9AEF1AF0818081825E
:10346E008184819681B83EEF1AF040EF1AF051EF49
:10347E001AF0820E016EDE0EE82EFED7012EFCD75C
:10348E0081A84CEF1AF04EEF1AF047EF1AF0430EE8
:10349E009AEF1AF081BA56EF1AF058EF1AF069EF58
:1034AE001AF0820E016EDE0EE82EFED7012EFCD72C
:1034BE0081AA64EF1AF066EF1AF05FEF1AF0300E81
:1034CE009AEF1AF081BC6EEF1AF070EF1AF081EFDE
:1034DE001AF0820E016EDE0EE82EFED7012EFCD7FC
:1034EE0081AC7CEF1AF07EEF1AF077EF1AF03D0EFA
:1034FE009AEF1AF081BE86EF1AF088EF1AF099EF64
:10350E001AF0820E016EDE0EE82EFED7012EFCD7CB
:10351E0081AE94EF1AF096EF1AF08FEF1AF02B0E91
:10352E009AEF1AF06E0E1200E0C02AF0E1C02BF0F6
:10353E00E2C02CF0E3C02DF01AC02AF01BC02BF015
:10354E001CC02CF01DC02DF0810E1E6EFF0E1F6EC6
:10355E002AC020F02BC021F02CC022F02DC023F069
:10356E00180EBFEF1AF0D8902332223221322032B9
:10357E00E82EBAEF1AF020501E24286E000E1F20DF
:10358E00296E29BED4EF1AF0295009E1170E285CD6
:10359E00D8A0D4EF1AF0D6EF1AF0E0EF1AF01AC056
:1035AE001AF01BC01BF01CC01CF01DC01DF0A3EFB9
:1035BE001BF029BEE5EF1AF0E7EF1AF057EF1BF0FC
:1035CE0028C01EF0FF0E1F6EFF0E206E7F0E216EA6
:1035DE00000E226E1E66F6EF1AF0FEEF1AF022347F
:1035EE002232213220321F321E2EF1EF1AF01FC06E
:1035FE0024F020C025F021C026F022C027F0245050
:10360E002A141E6E25502B141F6E26502C14206E5D
:10361E0027502D14216E1E501F1020102110D8A4DB
:10362E001BEF1BF01DEF1BF01FEF1BF0D6EF1AF078
:10363E002AC01EF02BC01FF02CC020F02DC021F090
:10364E00200E2FEF1BF0D890213220321F321E3267
:10365E00E82E2AEF1BF01E501F1020102110D8B498
:10366E003BEF1BF03DEF1BF045EF1BF024502A26DD
:10367E0025502B2226502C2227502D22241C1E6E24
:10368E00251C1F6E261C206E271C216E1E502A160E
:10369E001F502B1620502C1621502D169BEF1BF071
:1036AE002AC01EF02BC01FF02CC020F02DC021F020
:1036BE00200E67EF1BF0D890213220321F321E32BF
:1036CE00E82E62EF1BF01E501F1020102110D8A400
:1036DE0073EF1BF075EF1BF07FEF1BF0000E2A6EE1
:1036EE00000E2B6E000E2C6E000E2D6E9BEF1BF03F
:1036FE00D8902A341E6E2B341F6E2C34206E2D342F
:10370E00216E1E501F1020102110D8B491EF1BF007
:10371E0093EF1BF09BEF1BF0000E2A6E000E2B6E2C
:10372E00800E2C6EBF0E2D6E2AC01AF02BC01BF011
:10373E002CC01CF02DC01DF01200416E4150D8B4AB
:10374E00ABEF1BF0ADEF1BF0CFEF1BF03CBEB4EFB9
:10375E001BF0B2EF1BF0CFEF1BF039C03DF03AC0BB
:10376E003EF03BC03FF03CC040F03D1E3E1E3F1EB3
:10377E00401E3D2A000E3E223F2240223DC043F015
:10378E003EC044F03FC045F040C046F0D7EF1BF0BE
:10379E0039C043F03AC044F03BC045F03CC046F05F
:1037AE0039503A103B103C10D8A4E0EF1BF0E2EF7A
:1037BE001BF0ECEF1BF0000E396E000E3A6E000E91
:1037CE003B6E000E3C6E7DEF1CF0960E426EF6EFD9
:1037DE001BF0422AD8904632453244324332000E14
:1037EE0043143D6E000E44143E6E000E45143F6EA3
:1037FE00FE0E4614406E3D503E103F104010D8A4B1
:10380E000BEF1CF00DEF1CF0F0EF1BF01BEF1CF09C
:10381E00422A010E4326000E442245224622D8900B
:10382E004632453244324332000E43143D6E000E92
:10383E0044143E6E000E45143F6EFF0E4614406E4D
:10384E003D503E103F104010D8A430EF1CF032EF28
:10385E001CF00FEF1CF03AEF1CF04206D8904336E6
:10386E0044364536463645BE3FEF1CF041EF1CF060
:10387E0049EF1CF0020E426047EF1CF049EF1CF0BE
:10388E0034EF1CF042B04EEF1CF050EF1CF051EF35
:10389E001CF0459ED890423242C03DF03E6A3F6ACF
:1038AE00406A3DC040F03F6A3E6A3D6A3D50431259
:1038BE003E5044123F504512405046124150D8B42B
:1038CE006BEF1CF06DEF1CF075EF1CF03CBE74EF4F
:1038DE001CF072EF1CF075EF1CF0468E43C039F0F1
:1038EE0044C03AF045C03BF046C03CF01200000E1A
:1038FE00166E000E156E000E0F6E000E0E6E8AEF17
:10390E001CF0084A092A010E146E08C0F6FF09C001
:10391E00F7FF0800F550200AD8B498EF1CF09AEF84
:10392E001CF0B7EF1CF0F70E0A6EFF0E0B6E08C000
:10393E00F6FF09C0F7FF0800F5500C6E0D6A0A502D
:10394E000C260B500D220D5009E1050E0C5CD8A073
:10395E00B3EF1CF0B5EF1CF0B7EF1CF0000E146EB9
:10396E0014C010F0116A10501110D8A4C1EF1CF041
:10397E00C3EF1CF088EF1CF0CDEF1CF0000E0F6EA5
:10398E00010E0E6E084A092A02EF1DF008C0F6FF5E
:10399E0009C0F7FF0800F5500A6E0B6A0B50000ABB
:1039AE00D8B4DCEF1CF002EF1DF00A502B0AD8B48D
:1039BE00C9EF1CF0060AD8B4C5EF1CF002EF1DF0DB
:1039CE0015C001F016C002F0000E046E0A0E036E52
:1039DE00A3EC24F008C0F6FF09C0F7FF0800F5506D
:1039EE00015E000E025A300E0124156E000E0220EA
:1039FE00166EC9EF1CF0D00E0A6EFF0E0B6E08C0CD
:103A0E00F6FF09C0F7FF0800F5500C6E0D6A0A505C
:103A1E000C260B500D220D500AE10A0E0C5CD8A09C
:103A2E001BEF1DF01EEF1DF0010E1FEF1DF0000E1F
:103A3E00126E136A12501310D8A428EF1DF02AEF3D
:103A4E001DF0E7EF1CF00E500F10D8A431EF1DF053
:103A5E0033EF1DF041EF1DF015C00AF016C00BF04C
:103A6E000A1E0B1E0A4A0B2A0AC008F00BC009F0E8
:103A7E0045EF1DF015C008F016C009F01200033412
:103A8E0004340A6E0A50D8A44FEF1DF051EF1DF00A
:103A9E005BEF1DF0000E016E000E026E000E036E47
:103AAE00000E046EC8EF1DF001C005F002C006F056
:103ABE0003C007F004C008F0200E6BEF1DF0D89085
:103ACE000832073206320532E82E66EF1DF0055039
:103ADE00096E038EFF0E0116FF0E0216FF0E031661
:103AEE00000E0416960E0A5E0ABE82EF1DF080EFDF
:103AFE001DF098EF1DF00A50800A970FD8B08AEF8C
:103B0E001DF08CEF1DF08EEF1DF051EF1DF0D890D3
:103B1E0004320332023201320A3E8EEF1DF0B0EF54
:103B2E001DF01F0E0A649EEF1DF0A0EF1DF0A8EF12
:103B3E001DF051EF1DF0D8900136023603360436D3
:103B4E000A060A50D8A4AEEF1DF0B0EF1DF0A2EF9A
:103B5E001DF00950D8B4B6EF1DF0B8EF1DF0C0EF50
:103B6E001DF0041E031E021E016C000E0222032213
:103B7E00042201C001F002C002F003C003F004C031
:103B8E0004F01200000E1A14226E000E1B14236E87
:103B9E00800E1C14246E7F0E1D14256E22502310D1
:103BAE0024102510D8A4DEEF1DF0E0EF1DF0E8EF95
:103BBE001DF0000E1A6E000E1B6E000E1C6E000E17
:103BCE001D6E000E1E14226E000E1F14236E800E2C
:103BDE002014246E7F0E2114256E225023102410E3
:103BEE002510D8A4FDEF1DF0FFEF1DF007EF1EF01E
:103BFE00000E1E6E000E1F6E000E206E000E216E49
:103C0E001DAE0CEF1EF00EEF1EF017EF1EF01A6C2D
:103C1E001B1ED8B01B2A1C1ED8B01C2A800E1D5687
:103C2E0021AE1CEF1EF01EEF1EF027EF1EF01E6CD5
:103C3E001F1ED8B01F2A201ED8B0202A800E215653
:103C4E00000E1A1A000E1B1A000E1C1A800E1D1AD8
:103C5E00000E1E1A000E1F1A000E201A800E211AB8
:103C6E001E501A5C1F501B5820501C5821501D58B6
:103C7E00D8B044EF1EF046EF1EF049EF1EF0D8907C
:103C8E004AEF1EF0D8801200E4C00BF0E5C00CF035
:103C9E00E6C00DF0E7C00EF001C00BF002C00CF054
:103CAE0003C00DF004C00EF00BC005F00CC006F002
:103CBE000DC007F00EC008F0180E6BEF1EF0D89076
:103CCE000832073206320532E82E66EF1EF0055036
:103CDE00096E0A6A09500A10D8A478EF1EF07AEF1E
:103CEE001EF09AEF1EF0D8900B34056E0C34066E53
:103CFE000D34076E0E34086E0550061007100810AE
:103D0E00D8A48CEF1EF08EEF1EF094EF1EF0000E76
:103D1E00026E020E016EC9EF1EF0000E026E030E51
:103D2E00016EC9EF1EF009280A10D8A4A1EF1EF0EB
:103D3E00A3EF1EF0C5EF1EF00BC005F00CC006F091
:103D4E000DC007F00EC008F0090ED89005360636E5
:103D5E0007360836E82EACEF1EF005500610071099
:103D6E000810D8B4BDEF1EF0C0EF1EF0010EC1EF6B
:103D7E001EF0000E016E026AC9EF1EF0000E026EFA
:103D8E00040E016E12000001EC51ED11D8A4D2EF19
:103D9E001EF0D4EF1EF0DAEF1EF0ECC015F0EDC001
:103DAE0016F0E0EF1EF0FF0EEC25156EFF0EED2166
:103DBE00166EF0A1E5EF1EF0E7EF1EF0F0EF1EF02D
:103DCE0011C006F0076A0FC008F010C009F06CECC5
:103DDE0021F016BEF5EF1EF0F7EF1EF0F9EF1EF014
:103DEE00FDEF1EF0000E166E000E156E000E146E18
:103DFE00000E136E0FEF1FF0000E076E200E066EF4
:103E0E000FC008F010C009F06CEC21F0134A142A10
:103E1E001550135C1450800A126E1650800A1258F8
:103E2E00D8A01CEF1FF01EEF1FF003EF1FF00001D4
:103E3E00F0B124EF1FF026EF1FF02FEF1FF011C08F
:103E4E0006F0076A0FC008F010C009F06CEC21F004
:103E5E00010E13240F6E000E1420106E120001C0FE
:103E6E0008F002C009F003C00AF004C00BF005060A
:103E7E00D8A00606052806E10628D8A449EF1FF0AB
:103E8E004BEF1FF058EF1FF0000E026E000E016E8A
:103E9E00A0EF1FF0084A092A0A4A0B2A0506D8A0E5
:103EAE00060608C0D9FF09C0DAFFDF50D8B462EFAA
:103EBE001FF064EF1FF08FEF1FF00AC0F6FF0BC06C
:103ECE00F7FF0800F5500009D8B470EF1FF072EF3D
:103EDE001FF08FEF1FF005500610D8B479EF1FF0CA
:103EEE007BEF1FF08FEF1FF008C0D9FF09C0DAFF7C
:103EFE00DF50076E0AC0F6FF0BC0F7FF0800F55043
:103F0E000718D8B48DEF1FF08FEF1FF051EF1FF091
:103F1E0008C0D9FF09C0DAFFDF50076E0AC0F6FFEE
:103F2E000BC0F7FF0800F550075C016E026AD8A0BF
:103F3E00020612000001F0A1A7EF1FF0A9EF1FF07B
:103F4E00B3EF1FF018C00FF019C010F016C011F02B
:103F5E0017C012F096EC23F01BBEB8EF1FF0BAEFAD
:103F6E001FF0C0EF1FF01AC01FF01BC020F0C4EFEF
:103F7E001FF0000E206E000E1F6E000E1E6E000E45
:103F8E001D6ED6EF1FF0000E076E200E066E16C0C9
:103F9E0008F017C009F06CEC21F01D4A1E2A1F50C4
:103FAE001D5C1E50800A1C6E2050800A1C58D8A022
:103FBE00E3EF1FF0E5EF1FF0CAEF1FF00001F0B1C5
:103FCE00EBEF1FF0EDEF1FF0F7EF1FF018C00FF043
:103FDE0019C010F016C011F017C012F096EC23F0B5
:103FEE0018C001F019C002F046EC24F01F50012455
:103FFE00166E20500220176E1200000E066E04BEC2
:10400E000DEF20F00BEF20F013EF20F0036C041EE9
:10401E00D8B0042A010E066E02BE1AEF20F018EF79
:10402E0020F020EF20F0016C021ED8B0022A010E03
:10403E00061A000E086E000E076E03500410D8B458
:10404E002BEF20F02DEF20F055EF20F0010E056E36
:10405E0035EF20F0D89003360436052A04AE3AEF39
:10406E0020F03CEF20F031EF20F0D89007360836E4
:10407E000350015C04500258D8A048EF20F04AEFDC
:10408E0020F04FEF20F00350015E0450025A0780DB
:10409E00D89004320332052E3CEF20F00650D8B4EF
:1040AE005BEF20F05DEF20F061EF20F0076C081E53
:1040BE00D8B0082A07C001F008C002F0120002684A
:1040CE00F00E956EF2C0D9FFF3C0DAFF0001DF905B
:1040DE00F2C0D9FFF3C0DAFFDF82B0EF20F0F2C0FA
:1040EE00D9FFF3C0DAFFDF84A60EE82EFED700D08C
:1040FE00F2C0D9FFF3C0DAFF0001DF94A60EE82E5E
:10410E00FED700D0F2C0D9FFF3C0DAFF0001DF38CE
:10411E000F0B016E0138F00B026EF2C0D9FFF3C027
:10412E00DAFFDF84A60EE82EFED700D0F2C0D9FF4C
:10413E00F3C0DAFF0001DF94A60EE82EFED700D002
:10414E00F2C0D9FFF3C0DAFF0001DF380F0B021007
:10415E00026E02BEB5EF20F0B7EF20F076EF20F042
:10416E00F2C0D9FFF3C0DAFFDF92000E956E120097
:10417E00000E066E02BEC8EF20F0C6EF20F0CEEFA6
:10418E0020F0016C021ED8B0022A010E066E04BE8B
:10419E00D5EF20F0D3EF20F0D9EF20F0036C041E02
:1041AE00D8B0042A03500410D8B4E0EF20F0E2EFA8
:1041BE0020F006EF21F0010E056EEAEF20F0D89008
:1041CE0003360436052A04AEEFEF20F0F1EF20F0AF
:1041DE00E6EF20F00350015C04500258D8A0FAEF2D
:1041EE0020F0FCEF20F000EF21F00350015E0450B0
:1041FE00025AD89004320332052EF1EF20F0065009
:10420E00D8B40CEF21F00EEF21F012EF21F0016C7B
:10421E00021ED8B0022A01C001F002C002F0120044
:10422E00000E0114096E000E02140A6E800E0314A5
:10423E000B6E7F0E04140C6E09500A100B100C102E
:10424E00D8A42CEF21F02EEF21F036EF21F0000E46
:10425E00016E000E026E000E036E000E046E000E56
:10426E000514096E000E06140A6E800E07140B6EEE
:10427E007F0E08140C6E09500A100B100C10D8A4E7
:10428E004BEF21F04DEF21F055EF21F0000E056EB2
:10429E00000E066E000E076E000E086E0550011819
:1042AE000FE1065002180CE10750031809E10850FF
:1042BE000418D8B465EF21F067EF21F06AEF21F012
:1042CE00D8906BEF21F0D880120008500910D8B4A6
:1042DE0073EF21F075EF21F07EEF21F008500910F9
:1042EE00D8A47CEF21F07EEF21F083EF21F0065071
:1042FE00D9EC24F0B6EF21F020EE04F00850D926C8
:10430E000950DA22DE50DE10D8B490EF21F092EF91
:10431E0021F0ADEF21F020EE04F00850D92609501F
:10432E00DA2210EE02F00850E1260950E222DE50A9
:10433E00E65CE650800A0E6EDE50800A0E58D8B04B
:10434E00ABEF21F0ADEF21F0B6EF21F020EE02F051
:10435E000850D9260950DA22DE2A000EDD2212007C
:10436E00046EF2C0D9FFF3C0DAFF0001DF80F2C0A5
:10437E00D9FFF3C0DAFFDF9204C003F0033A0F0E49
:10438E000316F2C0D9FFF3C0DAFF033ADF50031869
:10439E000F0B0318DF6E7AEC24F0F2C0D9FFF3C0D6
:1043AE00DAFF0001DF8004C003F00F0E0316F2C027
:1043BE00D9FFF3C0DAFF033ADF5003180F0B0318CF
:1043CE00DF6E7AEC24F066EC20F01200046EF2C080
:1043DE00D9FFF3C0DAFF0001DF90F2C0D9FFF3C0BE
:1043EE00DAFFDF9204C003F0033A0F0E0316F2C099
:1043FE00D9FFF3C0DAFF033ADF5003180F0B03188F
:10440E00DF6E7AEC24F0F2C0D9FFF3C0DAFF0001C0
:10441E00DF9004C003F00F0E0316F2C0D9FFF3C0F5
:10442E00DAFF033ADF5003180F0B0318DF6E7AEC36
:10443E0024F066EC20F01200000E096E000E0A6EDB
:10444E00000E0B6E000E0C6E01A030EF22F032EF5C
:10445E0022F03AEF22F00550092606500A220750A4
:10446E000B2208500C22D890053606360736083631
:10447E00D89004320332023201320150021003107E
:10448E000410D8A44DEF22F04FEF22F02BEF22F0C4
:10449E0009C001F00AC002F00BC003F00CC004F01A
:1044AE001200000E956E830E0001F26F0F0EF36F69
:1044BE00F2C0D9FFF3C0DAFFDF94F2C0D9FFF3C028
:1044CE00DAFFDF90F2C0D9FFF3C0DAFFDF92000E01
:1044DE00956EF2C0D9FFF3C0DAFFDF500F0B200943
:1044EE00DF6E7AEC24F066EC20F0280EEDEC21F075
:1044FE00060EEDEC21F00E0EEDEC21F0180EEDECAB
:10450E0021F0010EEDEC21F012008EC07CF08FC078
:10451E007DF0000E0001EB6F000EEA6FAAEF22F0A5
:10452E008CC072F08DC073F07C0E746E000E756EC2
:10453E0090C076F091C077F01DEC0EF07250000135
:10454E00EA277350EB237CC0F6FF7DC0F7FF08000F
:10455E00F5500009D8A4B6EF22F0B8EF22F097EF8D
:10456E0022F0EAC08CF0EBC08DF01200BF0E096E87
:10457E00FF0E0A6E07C00BF008C00CF009500B2698
:10458E000A500C220C500AE11A0E0B5CD8A0D2EF86
:10459E0022F0D5EF22F0010ED6EF22F0000E0D6EB6
:1045AE000E6A0D500E10D8B4DFEF22F0E1EF22F0BC
:1045BE00E8EF22F0200E0710076E0850086EECEFA1
:1045CE0022F007C007F008C008F012009F0E096E17
:1045DE00FF0E0A6E07C00BF008C00CF009500B2638
:1045EE000A500C220C500AE11A0E0B5CD8A002EFF6
:1045FE0023F005EF23F0010E06EF23F0000E0D6EF3
:10460E000E6A0D500E10D8B40FEF23F011EF23F0F9
:10461E0017EF23F05F0E0714076E086A1BEF23F0E7
:10462E0007C007F008C008F0120003C007F004C06E
:10463E0008F001C009F002C00AF00750056E0850DC
:10464E00066E074A082A05C0F6FF06C0F7FFF86A8D
:10465E0009C0D9FF0AC0DAFF094A0A2A050EF76413
:10466E0003D00800F55005D0F6CFE1FFF7CFE2FFFB
:10467E00E750DF6EDF50D8A447EF23F049EF23F069
:10468E0024EF23F01200010E076E200E0118021007
:10469E00D8B454EF23F056EF23F06FEF23F0F70E5C
:1046AE00036EFF0E046E01C005F002C006F003504B
:1046BE00052604500622065009E1050E055CD8A019
:1046CE006BEF23F06DEF23F06FEF23F0000E076E0C
:1046DE0007C001F0026A1200000E1E1A000E1F1A09
:1046EE00000E201A800E211A1AC001F01BC002F013
:1046FE001CC003F01DC004F01EC005F01FC006F064
:10470E0020C007F021C008F09FEC10F001C01AF095
:10471E0002C01BF003C01CF004C01DF01200000EFE
:10472E00156E000E146EA7EF23F013C006F0076A85
:10473E0011C008F012C009F06CEC21F0144A152AD1
:10474E0014500F24D96E15501020DA6EDF50136EF0
:10475E001350D8A4B5EF23F0B7EF23F09CEF23F05E
:10476E0012009F0E036EFF0E046E200E0110056EDA
:10477E00000E0210066E0350052604500622065047
:10478E000AE11A0E055CD8A0CFEF23F0D2EF23F08A
:10479E00010ED3EF23F0000E016E026A12009F0E7F
:1047AE00036EFF0E046E01C005F002C006F003504A
:1047BE0005260450062206500AE11A0E055CD8A002
:1047CE00EBEF23F0EEEF23F0010EEFEF23F0000EF0
:1047DE00016E026A1200BF0E036EFF0E046E01C060
:1047EE0005F002C006F003500526045006220650BE
:1047FE000AE11A0E055CD8A007EF24F00AEF24F0A8
:10480E00010E0BEF24F0000E016E026A1200015031
:10481E00021003100410D8B417EF24F019EF24F08F
:10482E0021EF24F0000E011A000E021A000E031AD8
:10483E00800E041A01C001F002C002F003C003F0A2
:10484E0004C004F01200D00E036EFF0E046E01C001
:10485E0005F002C006F0035005260450062206504D
:10486E000AE10A0E055CD8A03FEF24F042EF24F0D7
:10487E00010E43EF24F0000E016E026A120001C019
:10488E0003F002C004F04EEF24F0014A022A01C0E8
:10489E00D9FF02C0DAFFDF50D8A458EF24F05AEF48
:1048AE0024F04CEF24F00350015C016E04500258CA
:1048BE00026E120033C00FF034C010F035C011F08C
:1048CE0036C012F037C013F038C014F0010E156E5A
:1048DE00FFEC12F00FC033F010C034F011C035F001
:1048EE0012C036F01200A60EE82EFED700D0F2C08F
:1048FE00D9FFF3C0DAFF0001DF84A60EE82EFED743
:10490E0000D0F2C0D9FFF3C0DAFF0001DF9412002D
:10491E00940E7E6E000E7F6E000E00018C6F000EE8
:10492E008D6F92C08EF093C08FF07E0E906F000E42
:10493E00916F8CEC22F0120001500302F3CF05F0C0
:10494E00F4CF06F001500402F35006260250030283
:10495E00F350062605C001F006C002F012006E0EDE
:10496E00026EBDEF24F009EC19F0026E6E0E021805
:10497E00D8B4C4EF24F0C6EF24F0BAEF24F00250FE
:10498E00120001EE00F0500EEE6AE806FDE100EEB8
:10499E00E0F0120EEE6AE806FDE1000EF86E000180
:0E49AE0054EF09F0056E0550B7EC21F0120031
:020000040020DA
:08000000FFFFFFFFFFFFFFFF00
:020000040030CA
:0E000000FF071F1FFF8385FF0FC00FE00F409B
:00000001FF
